:100000000C942A000C9447000C9447000C94470071
:100010000C9447000C9447000C9447000C94470044
:100020000C9447000C9447000C9447000C948A05EC
:100030000C9447000C949B030C9447000C944700CD
:100040000C9447000C9447000C9447000C946F02EA
:100050000C94470011241FBECFE5D8E0DEBFCDBF12
:1000600011E0A0E6B0E0EAEAFEE002C005900D92E1
:10007000A635B107D9F714E0A6E5B1E001C01D929D
:10008000A739B107E1F70E94B0060C9453070C940E
:10009000AF06FF920F931F93CF93DF9300D01F9271
:1000A000CDB7DEB7F82E811104C080E390E00E9446
:1000B000D303FE01349602E010E02AE0FF2051F065
:1000C0008F2D622F0E94E206905D9293F82E0150D0
:1000D0001109F4CF0F5F1F4F0330110559F0E1E014
:1000E000F0E0EC0FFD1FE00FF11F808190E00E9417
:1000F000D303F0CF0F900F900F90DF91CF911F910E
:100100000F91FF900895EF92FF920F931F93CF935B
:10011000DF9300D000D01F92CDB7DEB78C010097DF
:1001200021F480E390E00E94D303FE01369624E0A0
:1001300030E08AE0E82EF12C0115110551F0C801DC
:10014000B7010E94EE06805D82938B012150310938
:10015000F3CF89010F5F1F4F0530110559F0E1E022
:10016000F0E0EC0FFD1FE00FF11F808190E00E9496
:10017000D303F0CF0F900F900F900F900F90DF915F
:10018000CF911F910F91FF90EF900895CF93DF9340
:1001900000D000D0CDB7DEB78AE690E00E94E10340
:1001A000FF24F39480912A0290E00E94C7039C836D
:1001B0008B838B819C81892B09F46EC080913602E0
:1001C00081116AC08FE690E00E94E10380912A02CB
:1001D00090E00E94CD039A8389838B819C81833038
:1001E000910519F134F48130910579F00297A9F065
:1001F0004AC08530910549F104F1069709F043C0E2
:1002000087B1807E87B9369A28C089819A81892BE7
:1002100011F0AA9A38C0AA9836C089819A81892B90
:1002200011F0AB9A30C0AB982EC089819A81892B8E
:1002300011F0AC9A28C0AC9826C089819A81892B8C
:1002400011F0AD9A20C0AD981EC089819A81892B8A
:1002500011F0AE9A18C0AE9816C0349BFECFD4B041
:10026000E5B00D2D10E01E2984E790E00E94E10327
:10027000C8010E94830086E291E00E94E103D092CF
:100280003102E092300210922A02109237028EE779
:1002900090E00E94E10302C00E941A05F0922D0234
:1002A00081CFCF93DF9300D000D0CDB7DEB78BE8FE
:1002B00090E00E94E103FF24F39480912B0290E0F0
:1002C0000E94C7039C838B838B819C81892B09F4BB
:1002D00072C00B811C818091370290E00E94C7039D
:1002E0000817190709F067C080912B0290E00E945F
:1002F000CD039A8389838B819C818330910521F181
:1003000034F48130910581F00297B1F04BC0853013
:10031000910551F10CF1069709F044C087B1807E38
:10032000816087B9369A28C089819A81892B11F01A
:10033000AF9A38C0AF9836C089819A81892B11F065
:10034000929A30C092982EC089819A81892B11F09F
:10035000939A28C0939826C089819A81892B11F09D
:10036000949A20C094981EC089819A81892B11F09B
:10037000959A18C0959816C0349BFECFD4B0E5B0BE
:1003800004B110E01E2980E990E00E94E103C80159
:100390000E94830086E291E00E94E103D092330242
:1003A000E092320210922B02109237028AE990E01A
:1003B0000E94E10302C00E941A05F0922E027DCF36
:1003C000CF93DF9300D000D0CDB7DEB787EA90E0BF
:1003D0000E94E103FF24F39480912C0290E00E949C
:1003E000C7039C838B838B819C81892B09F472C00A
:1003F0008CEA90E00E94E10380912C0290E00E9440
:10040000CD039A8389838B819C818330910521F16F
:1004100034F48130910581F00297B1F050C08530FD
:10042000910571F12CF1069709F049C087B1807EE2
:10043000826087B9369A2CC089819A81892B11F004
:10044000969A41C096983FC089819A81892B11F074
:10045000979A39C0979837C081EB90E00E94E103EA
:1004600089819A81892B11F0C09A2DC0C0982BC028
:1004700089819A81892B11F0C19A25C0C19823C026
:1004800089819A81892B11F0C29A1DC0C2981BC024
:10049000349BFECFD4B0E5B00D2D10E01E2988EBC3
:1004A00090E00E94E103C8010E94830086E291E08F
:1004B0000E94E103D0923502E092340204C082EC43
:1004C00090E00E94E10310922C0288ED90E00E94DF
:1004D000E10302C00E941A05F0922F027DCF1F9205
:1004E0000F920FB60F9211242F933F934F935F9368
:1004F0006F937F938F939F93AF93BF93CF93EF931C
:10050000FF93C1B1C87F8DEE90E00E94E1038C2F74
:100510000E94490086E291E00E94E103C03A09F49A
:10052000ABC058F4C03699F0C038C1F0C111DBC07F
:100530001092570110925601E9C0C83B09F4A3C0BC
:10054000C03C09F4C5C0C83A09F0CDC09CC081E0E8
:1005500090E0909357018093560192C0C3B12091CF
:1005600056013091570121303105B1F42C2F30E084
:1005700030933A022093390222E030E03093570161
:100580002093560187EF90E00E94E1038C2F0E9498
:10059000490086E291E06DC02091560130915701EB
:1005A0002230310509F0B5C02091390230913A026C
:1005B00037FD07C02091390230913A0223303105CE
:1005C00084F02091390230913A022C3031050CF43C
:1005D0004EC02091390230913A022F3031050CF093
:1005E00046C0E0913902F0913A02E65DFD4FC083CA
:1005F00083E091E00E94E1038C2F0E94490086E293
:1006000091E00E94E1038091390290913A02892B96
:1006100039F410922D0280912A028093360219C07B
:100620008091390290913A02019739F410922E028A
:1006300080912B02809337020CC0809139029091F7
:100640003A02029731F410922F0280912C0280938B
:1006500038028091390290913A0201966FE070E081
:100660000E94020790933A028093390209C080E108
:1006700091E00E94E10304C01092570110925601CC
:1006800086B7856C45C0E0913902F0913A02E65D8B
:10069000FD4F808183B98091390290913A02019691
:1006A0006FE070E00E94020790933A028093390253
:1006B00081E090E0909357018093560189E291E0A8
:1006C0000E94E10383B10E94490086E291E006C0E6
:1006D000109257011092560187E391E00E94E103C6
:1006E00086B7806C15C0109257011092560183E4B2
:1006F00091E00E94E1038DEE90E00E94E1038C2FD7
:100700000E94490086E291E00E94E10386B7806D75
:1007100086BFFF91EF91CF91BF91AF919F918F9144
:100720007F916F915F914F913F912F910F900FBEED
:100730000F901F9018951F920F920FB60F921124D1
:100740002F933F934F935F936F937F938F939F93D9
:10075000AF93BF93EF93FF938CB190E00E94D303CC
:10076000FF91EF91BF91AF919F918F917F916F9189
:100770005F914F913F912F910F900FBE0F901F905F
:100780001895829586958695837090E00895869554
:1007900086958695877090E0089582FB882780F97A
:1007A00090E00895FFCFCF93DF931F92CDB7DEB7D0
:1007B00089835D9BFECF89818CB90F90DF91CF91AA
:1007C0000895CF93DF93EC01DE018991882321F016
:1007D0008C910E94D303F8CFDF91CF9108957F923F
:1007E0008F929F92AF92BF92CF92DF92EF92FF9241
:1007F0000F931F93CF93DF93CDB7DEB72F970FB62D
:10080000F894DEBF0FBECDBF6B017C016115710591
:100810008105910519F480E30E94D3038EE0782EC0
:100820009AE0892E912CA12CB12CC114D104E104A1
:10083000F10499F001E010E00C0F1D1F070D111DD0
:10084000C701B601A50194010E941607605DD80199
:100850006C9369017A017A94E8CF11E0170D1F308B
:1008600058F4A1E0B0E0AC0FBD1FA10FB11D8C91F9
:100870000E94D3031F5FF3CF2F960FB6F894DEBF0D
:100880000FBECDBFDF91CF911F910F91FF90EF90E1
:10089000DF90CF90BF90AF909F908F907F90089502
:1008A0008F929F92AF92BF92CF92DF92EF92FF9280
:1008B0000F931F93CF93DF93C0E0D0E088248394FD
:1008C000912C8091580190E00C2E02C0959587954F
:1008D0000A94E2F780FF41C0DE0123E0AA0FBB1FAC
:1008E0002A95E1F7AC5FBB4F2C9111963C91119783
:1008F00012964C91129713965C91139714966C91E3
:10090000149715967C91159716968C9116971796B5
:100910009C91A0906000B0906100C0906200D09067
:100920006300E0906400F090650000916600109113
:1009300067000E944A0788F420915A01C4010C2ED6
:1009400001C0880F0A94EAF78095282320935A0162
:10095000909158019823909358012196C830D10561
:1009600009F0AFCF90915A0180915901981312C0AC
:100970008FEF8093690018C01092690080915A012E
:100980002091690090E002C0959587952A95E2F73D
:1009900080FF0AC080916900823070F78091690001
:1009A0008F5F80936900EACFDF91CF911F910F9104
:1009B000FF90EF90DF90CF90BF90AF909F908F907F
:1009C0000895CF93DF93C5E4D4E080E090E06AE03F
:1009D0001992199220E030E0689FA001699F500DA4
:1009E0001124DA01A20FB31FA758BB4F1C922F5F2F
:1009F0003F4F2A303105A9F701968330910541F721
:100A000080915901816080935901809159018260E0
:100A1000809359018091590184608093590112BEDD
:100A200089B7816089BF83B7856083BF7894DF9180
:100A3000CF910895AF92BF92CF92DF92EF92FF9243
:100A40000F931F9389B78E7F89BF209160003091EB
:100A50006100409162005091630060916400709168
:100A60006500809166009091670012B7AFEFB0E02B
:100A7000A11BB1091B2F110F110B5D01C12ED12E2E
:100A8000E12EF12E012F0E94410720936000309348
:100A90006100409362005093630060936400709320
:100AA0006500809366009093670089B7816089BF75
:100AB0008FEF82BF81E094E0000001970097E1F79B
:100AC0001F910F91FF90EF90DF90CF90BF90AF906C
:100AD0000895EF92FF920F931F9390935D0180937F
:100AE0005C017093FF036093FE0350935F0140939A
:100AF0005E01309301042093000410936101009380
:100B00006001F0920304E09202041F910F91FF90A4
:100B1000EF900895F8940F921F922F923F924F9268
:100B20005F926F927F928F929F92AF92BF92CF927D
:100B3000DF92EF92FF920F931F932F933F934F9368
:100B40005F936F937F938F939F93AF93BF93CF9355
:100B5000DF93EF93FF93FFB7FF9380915B01F82F33
:100B6000FF93A0916900B0E02EB78DB790E0922B73
:100B7000AA0FBB1FA250BC4F11969C938E938DEF72
:100B800093E08DBF9EBF2091600030916100409145
:100B900062005091630060916400709165008091E3
:100BA00066009091670021503F4F4F4F5F4F6F4F4E
:100BB0007F4F8F4F9F4F2093600030936100409391
:100BC00062005093630060936400709365008093AB
:100BD0006600909367000E945004809169008F3FE7
:100BE00099F482E794E08DBF9EBF82ED93E08093FD
:100BF000CB03909344048091CB03E82F809144046D
:100C0000F82FEF93FF931895809168002091690069
:100C100090E002C0959587952A95E2F780FF39C04C
:100C2000A0916900B0E0AA0FBB1FA45ABE4F9C91CF
:100C300011968C919093CB0380934404A09169000A
:100C4000B0E0AA0FBB1FA250BC4F8D919C918DBFED
:100C5000A0916900B0E0AA0FBB1FA250BC4F8D91BC
:100C60009C919EBF80914404F82F8091CB03E82F84
:100C7000EF93FF93209168003091690081E090E04C
:100C800001C0880F3A95EAF7809582238093680027
:100C90001895A0916900B0E0AA0FBB1FA250BC4FED
:100CA0008D919C918DBFA0916900B0E0AA0FBB1FF0
:100CB000A250BC4F8D919C9111979EBFA090600057
:100CC000B0906100C0906200D0906300E09064003A
:100CD000F0906500009166001091670022B730E047
:100CE00040E050E060E070E080E090E00E94380773
:100CF0002093600030936100409362005093630042
:100D00006093640070936500809366009093670021
:100D1000FF918F2FF0935B01FF91FFBFFF91EF9148
:100D2000DF91CF91BF91AF919F918F917F916F9103
:100D30005F914F913F912F911F910F91FF90EF90F5
:100D4000DF90CF90BF90AF909F908F907F906F90EB
:100D50005F904F903F902F901F900F90189518958F
:100D60008CEF84BB83E085BB88E98AB986E880BDC7
:100D700088E089B985EE90E00E94E10387E886B9B2
:100D800082E680B981E282B985EC86BF11B8789499
:100D900081E080932D0280932E0280932F0296E6AD
:100DA000E92E93E0F92E00EE11E029E232E041E570
:100DB00051E062E073E086EC90E00E9469050E94D9
:100DC000E104FFCF991B79E004C0991F961708F042
:100DD000961B881F7A95C9F780950895AA1BBB1B9F
:100DE00051E107C0AA1FBB1FA617B70710F0A61B2B
:100DF000B70B881F991F5A95A9F780959095BC014C
:100E0000CD01089597FB072E16F4009407D077FDC7
:100E100009D00E94EE0607FC05D03EF4909581951E
:100E20009F4F0895709561957F4F0895A1E21A2E06
:100E3000AA1BBB1BFD010DC0AA1FBB1FEE1FFF1F7E
:100E4000A217B307E407F50720F0A21BB30BE40BCE
:100E5000F50B661F771F881F991F1A9469F7609515
:100E60007095809590959B01AC01BD01CF010895CF
:100E70002A0D3B1D4C1D5D1D6E1D7F1D801F911F8A
:100E800008952A193B094C095D096E097F09800BF9
:100E9000910B08952A153B054C055D056E057F05F0
:0A0EA000800791070895F894FFCF32
:100EAA00FF00000000000000FF0273657431006358
:100EBA006D6431000941444356414C313D0052456D
:100ECA0041445931203D20310A0D007365743200C6
:100EDA000941444356414C323D005245414459323E
:100EEA00203D20310A0D007365743300636D64334D
:100EFA0000616972330A0D000941444356414C337B
:100F0A003D0044454620696E207365742033207382
:100F1A0077697463680A0D00524541445933203D8C
:100F2A0020310A0D0053746172740A0D00090953C5
:100F3A0054415455533D00507472207365742074A3
:100F4A006F2000536574206461746120617320000E
:100F5A0052656741646472206F7574206F662062FF
:100F6A006F756E64732E0A0D007265616420646188
:100F7A0074612061732000436C6F736520493243AA
:100F8A000A0D000A0D44454641554C5420696E200D
:060F9A004953520A0D004C
:00000001FF
