:100000000C942A000C9447000C9447000C94470071
:100010000C9447000C9447000C9447000C94470044
:100020000C9447000C9447000C9447000C94470034
:100030000C9447000C94A1020C9447000C944700C8
:100040000C9447000C9447000C9447000C948E01CC
:100050000C94470011241FBECFE5D8E0DEBFCDBF12
:1000600011E0A0E6B0E0EAE5F6E002C005900D92EE
:10007000A234B107D9F711E0A2E4B1E001C01D92AA
:10008000AC3AB107E1F70E94C6020C942B030C9422
:100090000000CF93DF931F92CDB7DEB789835D9BBE
:1000A000FECF89818CB90F90DF91CF910895CF93C6
:1000B000DF93EC01FE018991882321F080810E9469
:1000C0004900F8CFDF91CF9108954F925F926F92E0
:1000D0007F92AF92BF92CF92DF92EF92FF920F93F7
:1000E0001F93CF93DF93CDB7DEB72F970FB6F8945A
:1000F000DEBF0FBECDBF6B017C01611571058105AF
:10010000910519F480E30E9449005E0180E1A80E88
:10011000B11C0EE010E08AE0482E512C612C712CAD
:10012000C114D104E104F10479F0C701B601A301BF
:1001300092010E940903605DF50162935F0169010C
:100140007A0101501109ECCF0F5F1F4F0F301105DD
:1001500051F0E1E0F0E0EC0FFD1FE00FF11F8081B6
:100160000E944900F1CF2F960FB6F894DEBF0FBE64
:10017000CDBFDF91CF911F910F91FF90EF90DF9056
:10018000CF90BF90AF907F906F905F904F90089509
:10019000FF920F931F93CF93DF9300D01F92CDB7A1
:1001A000DEB7F82E811103C080E30E944900FE01F2
:1001B000349602E010E02AE0FF2051F08F2D622FEC
:1001C0000E94E902905D9293F82E01501109F4CF3C
:1001D0000F5F1F4F0330110551F0E1E0F0E0EC0F2D
:1001E000FD1FE00FF11F80810E944900F1CF0F90A9
:1001F0000F900F90DF91CF911F910F91FF90089575
:10020000EF92FF920F931F93CF93DF9300D000D014
:100210001F92CDB7DEB78C01009719F480E30E94DE
:100220004900FE01369624E030E09AE0E92EF12CF8
:100230000115110551F0C801B7010E94F502805D5A
:1002400082938B0121503109F3CF89010F5F1F4F3A
:100250000530110551F0E1E0F0E0EC0FFD1FE00F7B
:10026000F11F80810E944900F1CF0F900F900F90F5
:100270000F900F90DF91CF911F910F91FF90EF9012
:100280000895FC0140E09F01281B390B2617370712
:100290001CF42191420FF7CF842F809508951F936E
:1002A000CF93DF93C0914801D0E02197BE0188E44D
:1002B00091E00E944101182FC85BDE4F888118131E
:1002C0000BC080E690E00E94570081E080937A01A5
:1002D0008EEF80937B0118C080E790E00E9457006A
:1002E000612F70E080E090E00E94650089E890E076
:1002F0000E945700688170E080E090E00E946500F5
:1003000081E091E00E9457008FEF80937A018EEE9A
:1003100080937B01DF91CF911F9108951F920F92DF
:100320000FB60F9211242F933F934F935F936F93C8
:100330007F938F939F93AF93BF93CF93EF93FF934D
:10034000C1B1C87F8BE990E00E9457008C2F0E94BA
:10035000C80081E091E00E945700C03A09F477C0DC
:1003600058F4C03699F0C038C1F0C111C2C0109223
:10037000470110924601D0C0C83B09F48AC0C03C76
:1003800009F4ACC0C83A09F0B4C083C081E090E081
:10039000909347018093460157C0C3B12091460115
:1003A0003091470121303105B1F42C2F30E03093EA
:1003B00045012093440122E030E03093470120932F
:1003C000460185EA90E00E9457008C2F0E94C800E9
:1003D00081E091E037C02091460130914701223001
:1003E000310509F09CC0209144013091450137FD51
:1003F00027C020914401309145012233310500F599
:10040000E0914401F0914501E85BFE4FC08381EB30
:1004100090E00E9457008C2F0E94C80081E091E07C
:100420000E9457008091440190914501019662E33A
:1004300070E00E94F502909345018093440104C04E
:100440008EEB90E00E94570086B7856C67C085ED03
:1004500090E00E94570080914601909147010297D9
:1004600089F483E090E090934701809346018FEEFA
:1004700090E00E9457000E944F0110924301109299
:1004800042014DC0109247011092460184E091E074
:10049000D9CFE0914201F0914301E658FE4F8081AF
:1004A00083B98091420190914301019662E370E02B
:1004B0000E94F502909343018093420184E090E012
:1004C000909347018093460185E191E00E94570097
:1004D00083B10E94C80081E091E006C010924701FC
:1004E0001092460183E291E00E94570086B7806C2B
:1004F00015C010924701109246018FE291E00E94D0
:1005000057008BE990E00E9457008C2F0E94C80092
:1005100081E091E00E94570086B7806D86BFFF9111
:10052000EF91CF91BF91AF919F918F917F916F91FB
:100530005F914F913F912F910F900FBE0F901F90A1
:1005400018951F920F920FB60F9211242F933F937D
:100550004F935F936F937F938F939F93AF93BF93CB
:10056000EF93FF938CB10E944900FF91EF91BF91EF
:10057000AF919F918F917F916F915F914F913F913B
:100580002F910F900FBE0F901F9018958CEF84BB8A
:1005900083E085BB88E98AB986E880BD88E089B9AF
:1005A00083E990E00E94570087E886B982E680B927
:1005B00081E282B985EC86BF11B887E080937A0129
:1005C00089E080937B0113BE12BE81E089BF7894DD
:1005D000FFCF991B79E004C0991F961708F0961B6E
:1005E000881F7A95C9F780950895AA1BBB1B51E116
:1005F00007C0AA1FBB1FA617B70710F0A61BB70B93
:10060000881F991F5A95A9F780959095BC01CD0137
:100610000895A1E21A2EAA1BBB1BFD010DC0AA1F43
:10062000BB1FEE1FFF1FA217B307E407F50720F05B
:10063000A21BB30BE40BF50B661F771F881F991FD6
:100640001A9469F760957095809590959B01AC011F
:0A065000BD01CF010895F894FFCF1B
:10065A00636865636B73756D20676F6F640A0D005D
:10066A00636865636B73756D206261642020206521
:10067A00787065637465643A007265636569766566
:10068A00643A0053746172740A0D000909535441A3
:10069A005455533D005074722073657420746F2052
:1006AA000053657420646174612061732000496E8F
:1006BA00707472206F7574206F6620626F756E6435
:1006CA00732E0A0D0073746F70206F72207265703A
:1006DA0065617465642073746172742E0A0D007307
:1006EA007461746520697320706B74207263766418
:1006FA002E0A0D0073746174652069732069646C35
:10070A00652E0A0D0072656164206461746120615E
:10071A00732000436C6F7365204932430A0D000A47
:10072A000D44454641554C5420696E204953520A9E
:02073A000D00B0
:00000001FF
